{
  "_format": "hh-sol-artifact-1",
  "contractName": "Multicall3Revised",
  "sourceName": "src/Multicall3Revised.sol",
  "abi": [
    {
      "inputs": [
        {
          "components": [
            {
              "internalType": "address",
              "name": "target",
              "type": "address"
            },
            {
              "internalType": "bytes",
              "name": "callData",
              "type": "bytes"
            }
          ],
          "internalType": "struct Multicall3Revised.Call[]",
          "name": "calls",
          "type": "tuple[]"
        }
      ],
      "name": "aggregate2",
      "outputs": [
        {
          "internalType": "uint256",
          "name": "blockNumber",
          "type": "uint256"
        },
        {
          "internalType": "uint256[]",
          "name": "gas",
          "type": "uint256[]"
        },
        {
          "internalType": "bytes[]",
          "name": "returnData",
          "type": "bytes[]"
        }
      ],
      "stateMutability": "payable",
      "type": "function"
    },
    {
      "inputs": [],
      "name": "getBasefee",
      "outputs": [
        {
          "internalType": "uint256",
          "name": "basefee",
          "type": "uint256"
        }
      ],
      "stateMutability": "view",
      "type": "function"
    },
    {
      "inputs": [
        {
          "internalType": "uint256",
          "name": "blockNumber",
          "type": "uint256"
        }
      ],
      "name": "getBlockHash",
      "outputs": [
        {
          "internalType": "bytes32",
          "name": "blockHash",
          "type": "bytes32"
        }
      ],
      "stateMutability": "view",
      "type": "function"
    },
    {
      "inputs": [],
      "name": "getBlockNumber",
      "outputs": [
        {
          "internalType": "uint256",
          "name": "blockNumber",
          "type": "uint256"
        }
      ],
      "stateMutability": "view",
      "type": "function"
    },
    {
      "inputs": [],
      "name": "getChainId",
      "outputs": [
        {
          "internalType": "uint256",
          "name": "chainid",
          "type": "uint256"
        }
      ],
      "stateMutability": "view",
      "type": "function"
    },
    {
      "inputs": [],
      "name": "getCurrentBlockCoinbase",
      "outputs": [
        {
          "internalType": "address",
          "name": "coinbase",
          "type": "address"
        }
      ],
      "stateMutability": "view",
      "type": "function"
    },
    {
      "inputs": [],
      "name": "getCurrentBlockGasLimit",
      "outputs": [
        {
          "internalType": "uint256",
          "name": "gaslimit",
          "type": "uint256"
        }
      ],
      "stateMutability": "view",
      "type": "function"
    },
    {
      "inputs": [],
      "name": "getCurrentBlockTimestamp",
      "outputs": [
        {
          "internalType": "uint256",
          "name": "timestamp",
          "type": "uint256"
        }
      ],
      "stateMutability": "view",
      "type": "function"
    },
    {
      "inputs": [
        {
          "internalType": "address",
          "name": "addr",
          "type": "address"
        }
      ],
      "name": "getEthBalance",
      "outputs": [
        {
          "internalType": "uint256",
          "name": "balance",
          "type": "uint256"
        }
      ],
      "stateMutability": "view",
      "type": "function"
    },
    {
      "inputs": [],
      "name": "getGasleft",
      "outputs": [
        {
          "internalType": "uint256",
          "name": "gas",
          "type": "uint256"
        }
      ],
      "stateMutability": "view",
      "type": "function"
    },
    {
      "inputs": [],
      "name": "getLastBlockHash",
      "outputs": [
        {
          "internalType": "bytes32",
          "name": "blockHash",
          "type": "bytes32"
        }
      ],
      "stateMutability": "view",
      "type": "function"
    },
    {
      "stateMutability": "payable",
      "type": "receive"
    }
  ],
  "bytecode": "0x608080604052346100165761085a908161001c8239f35b600080fdfe6080604052600436101561001b575b361561001957600080fd5b005b60003560e01c8063040ad5c1146100cb5780630f28c97d146100c657806327e86d6e146100c15780633408e470146100bc5780633e64a696146100b757806342cbb15c146100b25780634d2301cc146100ad57806386d516e8146100a8578063a8b0574e146100a3578063edb4b8651461009e5763ee82ac5e0361000e5761053c565b610502565b6104c9565b610490565b61044a565b6103f3565b6103ba565b610381565b610325565b6102ec565b6101b8565b606081019181526020916060838301528351809152826080830194019060005b8181106101a457505050604081840391015282518083528183019180808360051b8601019501936000905b83821061012b5750505050505090565b909192939495837fffffffffffffffffffffffffffffffffffffffffffffffffffffffffffffffe080848403018852885180519081855260005b8281106101905750506000818501840152601f0116909101810196810195019392916001019061011b565b818101850151868201860152889401610165565b8251865294840194918401916001016100f0565b6020807ffffffffffffffffffffffffffffffffffffffffffffffffffffffffffffffffc3601126102e75760043567ffffffffffffffff8082116102e757366023830112156102e75781600401359081116102e7576024820191602436918360051b0101116102e75761022a81610608565b926102348261066a565b9160005b818110610253576040518061024f888743846100d0565b0390f35b61025e8183876106de565b6000805a928161027a61027083610723565b9289810190610730565b919061028b60405180948193610781565b03925af16102aa6102a561029d61078f565b935a90610818565b61082a565b6102b48488610839565b52156102da57906001916102c88289610839565b526102d38188610839565b5001610238565b8051908482156102e75701fd5b600080fd5b346102e75760007ffffffffffffffffffffffffffffffffffffffffffffffffffffffffffffffffc3601126102e7576020604051428152f35b346102e75760007ffffffffffffffffffffffffffffffffffffffffffffffffffffffffffffffffc3601126102e75760206040517fffffffffffffffffffffffffffffffffffffffffffffffffffffffffffffffff4301408152f35b346102e75760007ffffffffffffffffffffffffffffffffffffffffffffffffffffffffffffffffc3601126102e7576020604051468152f35b346102e75760007ffffffffffffffffffffffffffffffffffffffffffffffffffffffffffffffffc3601126102e7576020604051488152f35b346102e75760007ffffffffffffffffffffffffffffffffffffffffffffffffffffffffffffffffc3601126102e7576020604051438152f35b73ffffffffffffffffffffffffffffffffffffffff8116036102e757565b346102e75760207ffffffffffffffffffffffffffffffffffffffffffffffffffffffffffffffffc3601126102e75760206004356104878161042c565b31604051908152f35b346102e75760007ffffffffffffffffffffffffffffffffffffffffffffffffffffffffffffffffc3601126102e7576020604051458152f35b346102e75760007ffffffffffffffffffffffffffffffffffffffffffffffffffffffffffffffffc3601126102e7576020604051418152f35b346102e75760007ffffffffffffffffffffffffffffffffffffffffffffffffffffffffffffffffc3601126102e75760205a604051908152f35b346102e75760207ffffffffffffffffffffffffffffffffffffffffffffffffffffffffffffffffc3601126102e7576020604051600435408152f35b7f4e487b7100000000000000000000000000000000000000000000000000000000600052604160045260246000fd5b907fffffffffffffffffffffffffffffffffffffffffffffffffffffffffffffffe0601f604051930116820182811067ffffffffffffffff8211176105eb57604052565b610578565b67ffffffffffffffff81116105eb5760051b60200190565b9061061a610615836105f0565b6105a7565b8281527fffffffffffffffffffffffffffffffffffffffffffffffffffffffffffffffe061064882946105f0565b019060005b82811061065957505050565b80606060208093850101520161064d565b90610677610615836105f0565b8281527fffffffffffffffffffffffffffffffffffffffffffffffffffffffffffffffe06106a582946105f0565b0190602036910137565b7f4e487b7100000000000000000000000000000000000000000000000000000000600052603260045260246000fd5b919081101561071e5760051b810135907fffffffffffffffffffffffffffffffffffffffffffffffffffffffffffffffc1813603018212156102e7570190565b6106af565b3561072d8161042c565b90565b9035907fffffffffffffffffffffffffffffffffffffffffffffffffffffffffffffffe1813603018212156102e7570180359067ffffffffffffffff82116102e7576020019181360383136102e757565b908092918237016000815290565b3d156107e4573d9067ffffffffffffffff82116105eb576107d760207fffffffffffffffffffffffffffffffffffffffffffffffffffffffffffffffe0601f850116016105a7565b9182523d6000602084013e565b606090565b7f4e487b7100000000000000000000000000000000000000000000000000000000600052601160045260246000fd5b9190820391821161082557565b6107e9565b90615208820180921161082557565b805182101561071e5760209160051b01019056fea164736f6c6343000813000a",
  "linkReferences": {},
  "deployedLinkReferences": {}
}